{
  "_format": "hh-sol-artifact-1",
  "contractName": "CampaignFactory",
  "sourceName": "Contracts/Campaigns.sol",
  "abi": [
    {
      "inputs": [
        {
          "internalType": "uint256",
          "name": "minimum",
          "type": "uint256"
        },
        {
          "internalType": "uint256",
          "name": "deadline",
          "type": "uint256"
        },
        {
          "internalType": "string",
          "name": "name",
          "type": "string"
        },
        {
          "internalType": "string",
          "name": "description",
          "type": "string"
        },
        {
          "internalType": "string",
          "name": "image",
          "type": "string"
        },
        {
          "internalType": "uint256",
          "name": "target",
          "type": "uint256"
        }
      ],
      "name": "createCampaign",
      "outputs": [],
      "stateMutability": "nonpayable",
      "type": "function"
    },
    {
      "inputs": [
        {
          "internalType": "uint256",
          "name": "",
          "type": "uint256"
        }
      ],
      "name": "deployedCampaigns",
      "outputs": [
        {
          "internalType": "address",
          "name": "",
          "type": "address"
        }
      ],
      "stateMutability": "view",
      "type": "function"
    },
    {
      "inputs": [],
      "name": "getDeployedCampaigns",
      "outputs": [
        {
          "internalType": "address[]",
          "name": "",
          "type": "address[]"
        }
      ],
      "stateMutability": "view",
      "type": "function"
    }
  ],
  "bytecode": "0x608060405234801561001057600080fd5b506120d2806100206000396000f3fe60806040523480156200001157600080fd5b5060043610620000465760003560e01c8063339d50a5146200004b5780634acb9d4f1462000081578063e0a812ce14620000a3575b600080fd5b620000696004803603810190620000639190620002a5565b620000c3565b6040516200007891906200031c565b60405180910390f35b6200008b62000103565b6040516200009a919062000407565b60405180910390f35b620000c16004803603810190620000bb91906200058d565b62000193565b005b60008181548110620000d457600080fd5b906000526020600020016000915054906101000a900473ffffffffffffffffffffffffffffffffffffffff1681565b606060008054806020026020016040519081016040528092919081815260200182805480156200018957602002820191906000526020600020905b8160009054906101000a900473ffffffffffffffffffffffffffffffffffffffff1673ffffffffffffffffffffffffffffffffffffffff16815260200190600101908083116200013e575b5050505050905090565b600086338787878787604051620001aa9062000248565b620001bc979695949392919062000720565b604051809103906000f080158015620001d9573d6000803e3d6000fd5b5090506000819080600181540180825580915050600190039060005260206000200160009091909190916101000a81548173ffffffffffffffffffffffffffffffffffffffff021916908373ffffffffffffffffffffffffffffffffffffffff16021790555050505050505050565b6118ea80620007b383390190565b6000604051905090565b600080fd5b600080fd5b6000819050919050565b6200027f816200026a565b81146200028b57600080fd5b50565b6000813590506200029f8162000274565b92915050565b600060208284031215620002be57620002bd62000260565b5b6000620002ce848285016200028e565b91505092915050565b600073ffffffffffffffffffffffffffffffffffffffff82169050919050565b60006200030482620002d7565b9050919050565b6200031681620002f7565b82525050565b60006020820190506200033360008301846200030b565b92915050565b600081519050919050565b600082825260208201905092915050565b6000819050602082019050919050565b6200037081620002f7565b82525050565b600062000384838362000365565b60208301905092915050565b6000602082019050919050565b6000620003aa8262000339565b620003b6818562000344565b9350620003c38362000355565b8060005b83811015620003fa578151620003de888262000376565b9750620003eb8362000390565b925050600181019050620003c7565b5085935050505092915050565b600060208201905081810360008301526200042381846200039d565b905092915050565b600080fd5b600080fd5b6000601f19601f8301169050919050565b7f4e487b7100000000000000000000000000000000000000000000000000000000600052604160045260246000fd5b620004808262000435565b810181811067ffffffffffffffff82111715620004a257620004a162000446565b5b80604052505050565b6000620004b762000256565b9050620004c5828262000475565b919050565b600067ffffffffffffffff821115620004e857620004e762000446565b5b620004f38262000435565b9050602081019050919050565b82818337600083830152505050565b6000620005266200052084620004ca565b620004ab565b90508281526020810184848401111562000545576200054462000430565b5b6200055284828562000500565b509392505050565b600082601f8301126200057257620005716200042b565b5b8135620005848482602086016200050f565b91505092915050565b60008060008060008060c08789031215620005ad57620005ac62000260565b5b6000620005bd89828a016200028e565b9650506020620005d089828a016200028e565b955050604087013567ffffffffffffffff811115620005f457620005f362000265565b5b6200060289828a016200055a565b945050606087013567ffffffffffffffff81111562000626576200062562000265565b5b6200063489828a016200055a565b935050608087013567ffffffffffffffff81111562000658576200065762000265565b5b6200066689828a016200055a565b92505060a06200067989828a016200028e565b9150509295509295509295565b62000691816200026a565b82525050565b600081519050919050565b600082825260208201905092915050565b60005b83811015620006d3578082015181840152602081019050620006b6565b60008484015250505050565b6000620006ec8262000697565b620006f88185620006a2565b93506200070a818560208601620006b3565b620007158162000435565b840191505092915050565b600060e08201905062000737600083018a62000686565b6200074660208301896200030b565b62000755604083018862000686565b8181036060830152620007698187620006df565b905081810360808301526200077f8186620006df565b905081810360a0830152620007958185620006df565b9050620007a660c083018462000686565b9897505050505050505056fe60806040523480156200001157600080fd5b50604051620018ea380380620018ea833981810160405281019062000037919062000302565b856000806101000a81548173ffffffffffffffffffffffffffffffffffffffff021916908373ffffffffffffffffffffffffffffffffffffffff1602179055508660018190555083600290816200008f919062000653565b508260039081620000a1919062000653565b508160049081620000b3919062000653565b508060058190555084600681905550505050505050506200073a565b6000604051905090565b600080fd5b600080fd5b6000819050919050565b620000f881620000e3565b81146200010457600080fd5b50565b6000815190506200011881620000ed565b92915050565b600073ffffffffffffffffffffffffffffffffffffffff82169050919050565b60006200014b826200011e565b9050919050565b6200015d816200013e565b81146200016957600080fd5b50565b6000815190506200017d8162000152565b92915050565b600080fd5b600080fd5b6000601f19601f8301169050919050565b7f4e487b7100000000000000000000000000000000000000000000000000000000600052604160045260246000fd5b620001d8826200018d565b810181811067ffffffffffffffff82111715620001fa57620001f96200019e565b5b80604052505050565b60006200020f620000cf565b90506200021d8282620001cd565b919050565b600067ffffffffffffffff82111562000240576200023f6200019e565b5b6200024b826200018d565b9050602081019050919050565b60005b83811015620002785780820151818401526020810190506200025b565b60008484015250505050565b60006200029b620002958462000222565b62000203565b905082815260208101848484011115620002ba57620002b962000188565b5b620002c784828562000258565b509392505050565b600082601f830112620002e757620002e662000183565b5b8151620002f984826020860162000284565b91505092915050565b600080600080600080600060e0888a031215620003245762000323620000d9565b5b6000620003348a828b0162000107565b9750506020620003478a828b016200016c565b96505060406200035a8a828b0162000107565b955050606088015167ffffffffffffffff8111156200037e576200037d620000de565b5b6200038c8a828b01620002cf565b945050608088015167ffffffffffffffff811115620003b057620003af620000de565b5b620003be8a828b01620002cf565b93505060a088015167ffffffffffffffff811115620003e257620003e1620000de565b5b620003f08a828b01620002cf565b92505060c0620004038a828b0162000107565b91505092959891949750929550565b600081519050919050565b7f4e487b7100000000000000000000000000000000000000000000000000000000600052602260045260246000fd5b600060028204905060018216806200046557607f821691505b6020821081036200047b576200047a6200041d565b5b50919050565b60008190508160005260206000209050919050565b60006020601f8301049050919050565b600082821b905092915050565b600060088302620004e57fffffffffffffffffffffffffffffffffffffffffffffffffffffffffffffffff82620004a6565b620004f18683620004a6565b95508019841693508086168417925050509392505050565b6000819050919050565b6000620005346200052e6200052884620000e3565b62000509565b620000e3565b9050919050565b6000819050919050565b620005508362000513565b620005686200055f826200053b565b848454620004b3565b825550505050565b600090565b6200057f62000570565b6200058c81848462000545565b505050565b5b81811015620005b457620005a860008262000575565b60018101905062000592565b5050565b601f8211156200060357620005cd8162000481565b620005d88462000496565b81016020851015620005e8578190505b62000600620005f78562000496565b83018262000591565b50505b505050565b600082821c905092915050565b6000620006286000198460080262000608565b1980831691505092915050565b600062000643838362000615565b9150826002028217905092915050565b6200065e8262000412565b67ffffffffffffffff8111156200067a57620006796200019e565b5b6200068682546200044c565b62000693828285620005b8565b600060209050601f831160018114620006cb5760008415620006b6578287015190505b620006c2858262000635565b86555062000732565b601f198416620006db8662000481565b60005b828110156200070557848901518255600182019150602085019450602081019050620006de565b8683101562000725578489015162000721601f89168262000615565b8355505b6001600288020188555050505b505050505050565b6111a0806200074a6000396000f3fe6080604052600436106100c25760003560e01c80637e7cd1b31161007f578063aba8315011610059578063aba8315014610263578063b2a87fc31461028e578063dda0a81a146102b9578063ea25213f146102e4576100c2565b80637e7cd1b3146101e257806397654a8c1461020d578063a7f3371514610238576100c2565b80631cee0700146100c75780631fbed5791461010657806329dcb0cf146101435780633ccfd60b1461016e5780634051ddac14610185578063481c6a75146101b7575b600080fd5b3480156100d357600080fd5b506100ee60048036038101906100e99190610b8e565b6102ee565b6040516100fd93929190610c0b565b60405180910390f35b34801561011257600080fd5b5061012d60048036038101906101289190610b8e565b610348565b60405161013a9190610c42565b60405180910390f35b34801561014f57600080fd5b50610158610387565b6040516101659190610c5d565b60405180910390f35b34801561017a57600080fd5b5061018361038d565b005b34801561019157600080fd5b5061019a610544565b6040516101ae989796959493929190610d08565b60405180910390f35b3480156101c357600080fd5b506101cc610740565b6040516101d99190610c42565b60405180910390f35b3480156101ee57600080fd5b506101f7610764565b6040516102049190610d9b565b60405180910390f35b34801561021957600080fd5b506102226107f2565b60405161022f9190610d9b565b60405180910390f35b34801561024457600080fd5b5061024d610880565b60405161025a9190610c5d565b60405180910390f35b34801561026f57600080fd5b50610278610886565b6040516102859190610d9b565b60405180910390f35b34801561029a57600080fd5b506102a3610914565b6040516102b09190610c5d565b60405180910390f35b3480156102c557600080fd5b506102ce61091a565b6040516102db9190610ecc565b60405180910390f35b6102ec6109e3565b005b600881815481106102fe57600080fd5b90600052602060002090600302016000915090508060000160009054906101000a900473ffffffffffffffffffffffffffffffffffffffff16908060010154908060020154905083565b6007818154811061035857600080fd5b906000526020600020016000915054906101000a900473ffffffffffffffffffffffffffffffffffffffff1681565b60065481565b60008054906101000a900473ffffffffffffffffffffffffffffffffffffffff1673ffffffffffffffffffffffffffffffffffffffff163373ffffffffffffffffffffffffffffffffffffffff16146103e557600080fd5b600047905060055481101561042f576040517f08c379a000000000000000000000000000000000000000000000000000000000815260040161042690610f60565b60405180910390fd5b6006544211610473576040517f08c379a000000000000000000000000000000000000000000000000000000000815260040161046a90610fcc565b60405180910390fd5b60008060009054906101000a900473ffffffffffffffffffffffffffffffffffffffff1673ffffffffffffffffffffffffffffffffffffffff16826040516104ba9061101d565b60006040518083038185875af1925050503d80600081146104f7576040519150601f19603f3d011682016040523d82523d6000602084013e6104fc565b606091505b5050905080610540576040517f08c379a00000000000000000000000000000000000000000000000000000000081526004016105379061107e565b60405180910390fd5b5050565b600080600080606080606060006001544760065460008054906101000a900473ffffffffffffffffffffffffffffffffffffffff1660026003600460055483805461058e906110cd565b80601f01602080910402602001604051908101604052809291908181526020018280546105ba906110cd565b80156106075780601f106105dc57610100808354040283529160200191610607565b820191906000526020600020905b8154815290600101906020018083116105ea57829003601f168201915b5050505050935082805461061a906110cd565b80601f0160208091040260200160405190810160405280929190818152602001828054610646906110cd565b80156106935780601f1061066857610100808354040283529160200191610693565b820191906000526020600020905b81548152906001019060200180831161067657829003601f168201915b505050505092508180546106a6906110cd565b80601f01602080910402602001604051908101604052809291908181526020018280546106d2906110cd565b801561071f5780601f106106f45761010080835404028352916020019161071f565b820191906000526020600020905b81548152906001019060200180831161070257829003601f168201915b50505050509150975097509750975097509750975097509091929394959697565b60008054906101000a900473ffffffffffffffffffffffffffffffffffffffff1681565b60028054610771906110cd565b80601f016020809104026020016040519081016040528092919081815260200182805461079d906110cd565b80156107ea5780601f106107bf576101008083540402835291602001916107ea565b820191906000526020600020905b8154815290600101906020018083116107cd57829003601f168201915b505050505081565b600380546107ff906110cd565b80601f016020809104026020016040519081016040528092919081815260200182805461082b906110cd565b80156108785780601f1061084d57610100808354040283529160200191610878565b820191906000526020600020905b81548152906001019060200180831161085b57829003601f168201915b505050505081565b60015481565b60048054610893906110cd565b80601f01602080910402602001604051908101604052809291908181526020018280546108bf906110cd565b801561090c5780601f106108e15761010080835404028352916020019161090c565b820191906000526020600020905b8154815290600101906020018083116108ef57829003601f168201915b505050505081565b60055481565b60606008805480602002602001604051908101604052809291908181526020016000905b828210156109da57838290600052602060002090600302016040518060600160405290816000820160009054906101000a900473ffffffffffffffffffffffffffffffffffffffff1673ffffffffffffffffffffffffffffffffffffffff1673ffffffffffffffffffffffffffffffffffffffff168152602001600182015481526020016002820154815250508152602001906001019061093e565b50505050905090565b60015434116109f157600080fd5b6006544210610a35576040517f08c379a0000000000000000000000000000000000000000000000000000000008152600401610a2c9061114a565b60405180910390fd5b6007339080600181540180825580915050600190039060005260206000200160009091909190916101000a81548173ffffffffffffffffffffffffffffffffffffffff021916908373ffffffffffffffffffffffffffffffffffffffff160217905550600860405180606001604052803373ffffffffffffffffffffffffffffffffffffffff16815260200142815260200134815250908060018154018082558091505060019003906000526020600020906003020160009091909190915060008201518160000160006101000a81548173ffffffffffffffffffffffffffffffffffffffff021916908373ffffffffffffffffffffffffffffffffffffffff16021790555060208201518160010155604082015181600201555050565b600080fd5b6000819050919050565b610b6b81610b58565b8114610b7657600080fd5b50565b600081359050610b8881610b62565b92915050565b600060208284031215610ba457610ba3610b53565b5b6000610bb284828501610b79565b91505092915050565b600073ffffffffffffffffffffffffffffffffffffffff82169050919050565b6000610be682610bbb565b9050919050565b610bf681610bdb565b82525050565b610c0581610b58565b82525050565b6000606082019050610c206000830186610bed565b610c2d6020830185610bfc565b610c3a6040830184610bfc565b949350505050565b6000602082019050610c576000830184610bed565b92915050565b6000602082019050610c726000830184610bfc565b92915050565b600081519050919050565b600082825260208201905092915050565b60005b83811015610cb2578082015181840152602081019050610c97565b60008484015250505050565b6000601f19601f8301169050919050565b6000610cda82610c78565b610ce48185610c83565b9350610cf4818560208601610c94565b610cfd81610cbe565b840191505092915050565b600061010082019050610d1e600083018b610bfc565b610d2b602083018a610bfc565b610d386040830189610bfc565b610d456060830188610bed565b8181036080830152610d578187610ccf565b905081810360a0830152610d6b8186610ccf565b905081810360c0830152610d7f8185610ccf565b9050610d8e60e0830184610bfc565b9998505050505050505050565b60006020820190508181036000830152610db58184610ccf565b905092915050565b600081519050919050565b600082825260208201905092915050565b6000819050602082019050919050565b610df281610bdb565b82525050565b610e0181610b58565b82525050565b606082016000820151610e1d6000850182610de9565b506020820151610e306020850182610df8565b506040820151610e436040850182610df8565b50505050565b6000610e558383610e07565b60608301905092915050565b6000602082019050919050565b6000610e7982610dbd565b610e838185610dc8565b9350610e8e83610dd9565b8060005b83811015610ebf578151610ea68882610e49565b9750610eb183610e61565b925050600181019050610e92565b5085935050505092915050565b60006020820190508181036000830152610ee68184610e6e565b905092915050565b7f5468652074617267657420686173206e6f74206265656e20726561636865642060008201527f7965740000000000000000000000000000000000000000000000000000000000602082015250565b6000610f4a602383610c83565b9150610f5582610eee565b604082019050919050565b60006020820190508181036000830152610f7981610f3d565b9050919050565b7f5468652066756e6472616973696e67206973206e6f74206f7665722079657400600082015250565b6000610fb6601f83610c83565b9150610fc182610f80565b602082019050919050565b60006020820190508181036000830152610fe581610fa9565b9050919050565b600081905092915050565b50565b6000611007600083610fec565b915061101282610ff7565b600082019050919050565b600061102882610ffa565b9150819050919050565b7f5472616e73666572206661696c65640000000000000000000000000000000000600082015250565b6000611068600f83610c83565b915061107382611032565b602082019050919050565b600060208201905081810360008301526110978161105b565b9050919050565b7f4e487b7100000000000000000000000000000000000000000000000000000000600052602260045260246000fd5b600060028204905060018216806110e557607f821691505b6020821081036110f8576110f761109e565b5b50919050565b7f5468652066756e6472616973696e67206973206f766572000000000000000000600082015250565b6000611134601783610c83565b915061113f826110fe565b602082019050919050565b6000602082019050818103600083015261116381611127565b905091905056fea2646970667358221220f56c57b00ca43a0433e408a81cd7f34d827ff756978df1ded47d341f1fbb134064736f6c63430008180033a2646970667358221220075a71cc97e08886637606e7d7705095aa4f003525b2c3f998bb2c738f4530f164736f6c63430008180033",
  "linkReferences": {},
  "deployedLinkReferences": {}
}